{
  "_format": "hh-sol-artifact-1",
  "contractName": "AuctionDropFactory",
  "sourceName": "contracts/AuctionDropFactory.sol",
  "abi": [
    {
      "inputs": [
        {
          "internalType": "address",
          "name": "_dropContractImplementation",
          "type": "address"
        },
        {
          "internalType": "address",
          "name": "_paymentToken",
          "type": "address"
        }
      ],
      "stateMutability": "nonpayable",
      "type": "constructor"
    },
    {
      "anonymous": false,
      "inputs": [
        {
          "indexed": true,
          "internalType": "bytes32",
          "name": "cloneId",
          "type": "bytes32"
        },
        {
          "indexed": true,
          "internalType": "address",
          "name": "cloneAddress",
          "type": "address"
        },
        {
          "indexed": true,
          "internalType": "address",
          "name": "caller",
          "type": "address"
        }
      ],
      "name": "AuctionDropCreated",
      "type": "event"
    },
    {
      "anonymous": false,
      "inputs": [
        {
          "indexed": true,
          "internalType": "address",
          "name": "previousOwner",
          "type": "address"
        },
        {
          "indexed": true,
          "internalType": "address",
          "name": "newOwner",
          "type": "address"
        }
      ],
      "name": "OwnershipTransferred",
      "type": "event"
    },
    {
      "inputs": [
        {
          "internalType": "bytes32",
          "name": "_dropId",
          "type": "bytes32"
        },
        {
          "internalType": "address",
          "name": "_nftAddress",
          "type": "address"
        },
        {
          "internalType": "uint256",
          "name": "_assetId",
          "type": "uint256"
        },
        {
          "internalType": "uint256",
          "name": "_bidValue",
          "type": "uint256"
        }
      ],
      "name": "bid",
      "outputs": [],
      "stateMutability": "nonpayable",
      "type": "function"
    },
    {
      "inputs": [
        {
          "internalType": "bytes32",
          "name": "_dropId",
          "type": "bytes32"
        }
      ],
      "name": "claimFunds",
      "outputs": [],
      "stateMutability": "nonpayable",
      "type": "function"
    },
    {
      "inputs": [
        {
          "internalType": "bytes32",
          "name": "_dropId",
          "type": "bytes32"
        },
        {
          "internalType": "address",
          "name": "_nftAddress",
          "type": "address"
        },
        {
          "internalType": "uint256",
          "name": "_assetId",
          "type": "uint256"
        }
      ],
      "name": "claimNft",
      "outputs": [],
      "stateMutability": "nonpayable",
      "type": "function"
    },
    {
      "inputs": [
        {
          "internalType": "bytes32",
          "name": "",
          "type": "bytes32"
        }
      ],
      "name": "cloneAddresses",
      "outputs": [
        {
          "internalType": "address",
          "name": "",
          "type": "address"
        }
      ],
      "stateMutability": "view",
      "type": "function"
    },
    {
      "inputs": [
        {
          "internalType": "bytes32",
          "name": "_cloneId",
          "type": "bytes32"
        },
        {
          "internalType": "uint256",
          "name": "_auctionStartTime",
          "type": "uint256"
        },
        {
          "internalType": "uint256",
          "name": "_auctionEndTime",
          "type": "uint256"
        },
        {
          "components": [
            {
              "internalType": "address",
              "name": "nftContractAddress",
              "type": "address"
            },
            {
              "internalType": "uint256[]",
              "name": "tokenIds",
              "type": "uint256[]"
            },
            {
              "internalType": "uint256[]",
              "name": "amounts",
              "type": "uint256[]"
            },
            {
              "internalType": "uint256[]",
              "name": "prices",
              "type": "uint256[]"
            }
          ],
          "internalType": "struct DropData.Data[]",
          "name": "_data",
          "type": "tuple[]"
        }
      ],
      "name": "createAuctionDrop",
      "outputs": [
        {
          "internalType": "address",
          "name": "cloneAddress",
          "type": "address"
        }
      ],
      "stateMutability": "nonpayable",
      "type": "function"
    },
    {
      "inputs": [],
      "name": "dropContractImplementation",
      "outputs": [
        {
          "internalType": "address",
          "name": "",
          "type": "address"
        }
      ],
      "stateMutability": "view",
      "type": "function"
    },
    {
      "inputs": [
        {
          "internalType": "bytes32",
          "name": "",
          "type": "bytes32"
        }
      ],
      "name": "dropSellers",
      "outputs": [
        {
          "internalType": "address",
          "name": "",
          "type": "address"
        }
      ],
      "stateMutability": "view",
      "type": "function"
    },
    {
      "inputs": [],
      "name": "owner",
      "outputs": [
        {
          "internalType": "address",
          "name": "",
          "type": "address"
        }
      ],
      "stateMutability": "view",
      "type": "function"
    },
    {
      "inputs": [],
      "name": "paymentToken",
      "outputs": [
        {
          "internalType": "contract IERC20",
          "name": "",
          "type": "address"
        }
      ],
      "stateMutability": "view",
      "type": "function"
    },
    {
      "inputs": [],
      "name": "renounceOwnership",
      "outputs": [],
      "stateMutability": "nonpayable",
      "type": "function"
    },
    {
      "inputs": [
        {
          "internalType": "address",
          "name": "newOwner",
          "type": "address"
        }
      ],
      "name": "transferOwnership",
      "outputs": [],
      "stateMutability": "nonpayable",
      "type": "function"
    }
  ],
  "bytecode": "0x60806040523480156200001157600080fd5b50604051620015ed380380620015ed8339810160408190526200003491620000de565b6200003f3362000071565b600180546001600160a01b039384166001600160a01b0319918216179091556004805492909316911617905562000115565b600080546001600160a01b038381166001600160a01b0319831681178455604051919092169283917f8be0079c531659141344cd1fd0a4f28419497f9722a3daafe3b4186f6b6457e09190a35050565b80516001600160a01b0381168114620000d957600080fd5b919050565b60008060408385031215620000f1578182fd5b620000fc83620000c1565b91506200010c60208401620000c1565b90509250929050565b6114c880620001256000396000f3fe608060405234801561001057600080fd5b50600436106100c95760003560e01c80638da5cb5b11610081578063f2fde38b1161005b578063f2fde38b146101a3578063f7d8fa0a146101b6578063f82ce71c146101c9576100c9565b80638da5cb5b14610156578063bed64e8414610167578063d00c89231461017a576100c9565b80635ebd63cc116100b25780635ebd63cc146101265780636bd4bfe11461013b578063715018a61461014e576100c9565b80633013ce29146100ce5780633a0a3e0d146100fd575b600080fd5b6004546100e1906001600160a01b031681565b6040516001600160a01b03909116815260200160405180910390f35b6100e161010b366004611179565b6002602052600090815260409020546001600160a01b031681565b6101396101343660046111c8565b6101dc565b005b610139610149366004611179565b610568565b61013961070b565b6000546001600160a01b03166100e1565b610139610175366004611191565b61071f565b6100e1610188366004611179565b6003602052600090815260409020546001600160a01b031681565b6101396101b13660046110d2565b61095a565b6100e16101c4366004611204565b6109ea565b6001546100e1906001600160a01b031681565b6000848152600260205260409020546001600160a01b03166102455760405162461bcd60e51b815260206004820152601a60248201527f4e6f2064726f702065786973747320666f72207468697320696400000000000060448201526064015b60405180910390fd5b60045481906001600160a01b031663dd62ed3e336040516001600160e01b031960e084901b1681526001600160a01b03909116600482015230602482015260440160206040518083038186803b15801561029e57600080fd5b505afa1580156102b2573d6000803e3d6000fd5b505050506040513d601f19601f820116820180604052508101906102d69190611346565b10156103245760405162461bcd60e51b815260206004820152601b60248201527f4e6f7420656e6f75676820616c6c6f77616e65206772616e7465640000000000604482015260640161023c565b6000848152600260205260408120546001600160a01b03169081908080836375700d46336040516001600160e01b031960e084901b1681526001600160a01b039182166004820152908b166024820152604481018a905260648101899052608401606060405180830381600087803b15801561039f57600080fd5b505af11580156103b3573d6000803e3d6000fd5b505050506040513d601f19601f820116820180604052508101906103d7919061110f565b919450925090508261042b5760405162461bcd60e51b815260206004820152601960248201527f42696420686173206e6f74206265656e20616363657074656400000000000000604482015260640161023c565b6001600160a01b038216156104c4576004805460405163a9059cbb60e01b81526001600160a01b03858116938201939093526024810184905291169063a9059cbb90604401602060405180830381600087803b15801561048a57600080fd5b505af115801561049e573d6000803e3d6000fd5b505050506040513d601f19601f820116820180604052508101906104c291906110f5565b505b6004546001600160a01b03166323b872dd336040516001600160e01b031960e084901b1681526001600160a01b03909116600482015230602482015260448101899052606401602060405180830381600087803b15801561052457600080fd5b505af1158015610538573d6000803e3d6000fd5b505050506040513d601f19601f8201168201806040525081019061055c91906110f5565b50505050505050505050565b6000818152600260205260409020546001600160a01b03166105cc5760405162461bcd60e51b815260206004820152601a60248201527f4e6f2064726f702065786973747320666f722074686973206964000000000000604482015260640161023c565b6000818152600260205260408120546001600160a01b03169081908163693d0df2336040516001600160e01b031960e084901b1681526001600160a01b039091166004820152602401602060405180830381600087803b15801561062f57600080fd5b505af1158015610643573d6000803e3d6000fd5b505050506040513d601f19601f820116820180604052508101906106679190611346565b600480546000878152600360205260409081902054905163a9059cbb60e01b81526001600160a01b039182169381019390935260248301849052929350919091169063a9059cbb90604401602060405180830381600087803b1580156106cc57600080fd5b505af11580156106e0573d6000803e3d6000fd5b505050506040513d601f19601f8201168201806040525081019061070491906110f5565b5050505050565b610713610d15565b61071d6000610d6f565b565b6000838152600260205260409020546001600160a01b03166107835760405162461bcd60e51b815260206004820152601a60248201527f4e6f2064726f702065786973747320666f722074686973206964000000000000604482015260640161023c565b6000838152600260205260408120546001600160a01b03169081908082635826bad0336040516001600160e01b031960e084901b1681526001600160a01b0391821660048201529089166024820152604481018890526064016040805180830381600087803b1580156107f557600080fd5b505af1158015610809573d6000803e3d6000fd5b505050506040513d601f19601f8201168201806040525081019061082d919061114e565b915091508161087e5760405162461bcd60e51b815260206004820152601460248201527f596f752063616e6e6f7420636c61696d204e4654000000000000000000000000604482015260640161023c565b6000878152600360205260408082205481517ff242432a0000000000000000000000000000000000000000000000000000000081526001600160a01b03918216600480830191909152336024830152604482018a90526064820186905260a0608483015260a48201527f307830300000000000000000000000000000000000000000000000000000000060c4820152915189939184169263f242432a9260e480830193919282900301818387803b15801561093857600080fd5b505af115801561094c573d6000803e3d6000fd5b505050505050505050505050565b610962610d15565b6001600160a01b0381166109de5760405162461bcd60e51b815260206004820152602660248201527f4f776e61626c653a206e6577206f776e657220697320746865207a65726f206160448201527f6464726573730000000000000000000000000000000000000000000000000000606482015260840161023c565b6109e781610d6f565b50565b600042841180156109fa57504283115b610a465760405162461bcd60e51b815260206004820152601960248201527f496e76616c6964207374617274206f7220656e642074696d6500000000000000604482015260640161023c565b828410610a955760405162461bcd60e51b815260206004820152601260248201527f496e76616c69642074696d657374616d70730000000000000000000000000000604482015260640161023c565b6000805b8351811015610bc157838181518110610ac257634e487b7160e01b600052603260045260246000fd5b6020026020010151600001519150816001600160a01b031663e985e9c5610ae63390565b6040516001600160e01b031960e084901b1681526001600160a01b03909116600482015230602482015260440160206040518083038186803b158015610b2b57600080fd5b505afa158015610b3f573d6000803e3d6000fd5b505050506040513d601f19601f82011682018060405250810190610b6391906110f5565b610baf5760405162461bcd60e51b815260206004820152601c60248201527f4e6f7420617070726f76656420746f206d616e61676520617373657400000000604482015260640161023c565b80610bb981611440565b915050610a99565b50600154600090610bda906001600160a01b0316610dcc565b90506001600160a01b0381166336759f7f8787336040516001600160e01b031960e086901b168152600481019390935260248301919091526001600160a01b03166044820152606401600060405180830381600087803b158015610c3d57600080fd5b505af1158015610c51573d6000803e3d6000fd5b5050506000888152600260205260409020805473ffffffffffffffffffffffffffffffffffffffff19166001600160a01b03841617905550610c903390565b6000888152600360205260409020805473ffffffffffffffffffffffffffffffffffffffff19166001600160a01b0392909216919091179055610cd38785610e87565b60405133906001600160a01b0383169089907f741e0a0c4ac9633cfca8c77b054be57e5193f118b67466fd04e3464aa2942e7c90600090a49695505050505050565b6000546001600160a01b0316331461071d5760405162461bcd60e51b815260206004820181905260248201527f4f776e61626c653a2063616c6c6572206973206e6f7420746865206f776e6572604482015260640161023c565b600080546001600160a01b0383811673ffffffffffffffffffffffffffffffffffffffff19831681178455604051919092169283917f8be0079c531659141344cd1fd0a4f28419497f9722a3daafe3b4186f6b6457e09190a35050565b60006040517f3d602d80600a3d3981f3363d3d373d3d3d363d7300000000000000000000000081528260601b60148201527f5af43d82803e903d91602b57fd5bf3000000000000000000000000000000000060288201526037816000f09150506001600160a01b038116610e825760405162461bcd60e51b815260206004820152601660248201527f455243313136373a20637265617465206661696c656400000000000000000000604482015260640161023c565b919050565b6000828152600260205260409020546001600160a01b0316610eeb5760405162461bcd60e51b815260206004820152601a60248201527f4e6f2064726f702065786973747320666f722074686973206964000000000000604482015260640161023c565b6000828152600260205260408120546001600160a01b03169081905b8351811015610704576000848281518110610f3257634e487b7160e01b600052603260045260246000fd5b60200260200101516000015190506000858381518110610f6257634e487b7160e01b600052603260045260246000fd5b60200260200101516020015190506000868481518110610f9257634e487b7160e01b600052603260045260246000fd5b60200260200101516040015190506000878581518110610fc257634e487b7160e01b600052603260045260246000fd5b6020026020010151606001519050856001600160a01b03166336868bed858585856040518563ffffffff1660e01b81526004016110029493929190611398565b600060405180830381600087803b15801561101c57600080fd5b505af1158015611030573d6000803e3d6000fd5b5050505050505050808061104390611440565b915050610f07565b8035610e828161147d565b600082601f830112611066578081fd5b8135602061107b6110768361141c565b6113eb565b8281528181019085830183850287018401881015611097578586fd5b855b858110156110b557813584529284019290840190600101611099565b5090979650505050505050565b80518015158114610e8257600080fd5b6000602082840312156110e3578081fd5b81356110ee8161147d565b9392505050565b600060208284031215611106578081fd5b6110ee826110c2565b600080600060608486031215611123578182fd5b61112c846110c2565b9250602084015161113c8161147d565b80925050604084015190509250925092565b60008060408385031215611160578182fd5b611169836110c2565b9150602083015190509250929050565b60006020828403121561118a578081fd5b5035919050565b6000806000606084860312156111a5578283fd5b8335925060208401356111b78161147d565b929592945050506040919091013590565b600080600080608085870312156111dd578081fd5b8435935060208501356111ef8161147d565b93969395505050506040820135916060013590565b60008060008060808587031215611219578384fd5b843593506020850135925060408501359150606085013567ffffffffffffffff80821115611245578283fd5b818701915087601f830112611258578283fd5b611265611076833561141c565b82358152602080820191908401855b853581101561133457813586016080818e03601f19011215611294578788fd5b61129e60806113eb565b6112aa6020830161104b565b81526040820135878111156112bd57898afd5b6112cc8f602083860101611056565b6020830152506060820135878111156112e357898afd5b6112f28f602083860101611056565b60408301525060808201358781111561130957898afd5b6113188f602083860101611056565b6060830152508552506020938401939190910190600101611274565b50508094505050505092959194509250565b600060208284031215611357578081fd5b5051919050565b6000815180845260208085019450808401835b8381101561138d57815187529582019590820190600101611371565b509495945050505050565b60006001600160a01b0386168252608060208301526113ba608083018661135e565b82810360408401526113cc818661135e565b905082810360608401526113e0818561135e565b979650505050505050565b604051601f8201601f1916810167ffffffffffffffff8111828210171561141457611414611467565b604052919050565b600067ffffffffffffffff82111561143657611436611467565b5060209081020190565b600060001982141561146057634e487b7160e01b81526011600452602481fd5b5060010190565b634e487b7160e01b600052604160045260246000fd5b6001600160a01b03811681146109e757600080fdfea264697066735822122016fc7c99d953adb823fe33dab324d9f008daf7bf7f80de312cb63c777615a3e864736f6c63430008020033",
  "linkReferences": {},
  "deployedLinkReferences": {}
}